{
  "contractName": "TestGasCosts",
  "abi": [
    {
      "inputs": [],
      "name": "used1",
      "outputs": [
        {
          "internalType": "uint256",
          "name": "",
          "type": "uint256"
        }
      ],
      "stateMutability": "view",
      "type": "function",
      "constant": true
    },
    {
      "inputs": [],
      "name": "used2",
      "outputs": [
        {
          "internalType": "uint256",
          "name": "",
          "type": "uint256"
        }
      ],
      "stateMutability": "view",
      "type": "function",
      "constant": true
    },
    {
      "inputs": [],
      "name": "used3",
      "outputs": [
        {
          "internalType": "uint256",
          "name": "",
          "type": "uint256"
        }
      ],
      "stateMutability": "view",
      "type": "function",
      "constant": true
    },
    {
      "inputs": [],
      "name": "used4",
      "outputs": [
        {
          "internalType": "uint256",
          "name": "",
          "type": "uint256"
        }
      ],
      "stateMutability": "view",
      "type": "function",
      "constant": true
    },
    {
      "inputs": [],
      "name": "test1",
      "outputs": [],
      "stateMutability": "nonpayable",
      "type": "function"
    },
    {
      "inputs": [
        {
          "internalType": "uint16",
          "name": "four_nibbles",
          "type": "uint16"
        },
        {
          "internalType": "uint16",
          "name": "index",
          "type": "uint16"
        }
      ],
      "name": "getValue1",
      "outputs": [
        {
          "internalType": "uint16",
          "name": "",
          "type": "uint16"
        }
      ],
      "stateMutability": "pure",
      "type": "function",
      "constant": true
    },
    {
      "inputs": [],
      "name": "test2",
      "outputs": [],
      "stateMutability": "nonpayable",
      "type": "function"
    },
    {
      "inputs": [
        {
          "internalType": "uint256",
          "name": "four_nibbles",
          "type": "uint256"
        },
        {
          "internalType": "uint256",
          "name": "index",
          "type": "uint256"
        }
      ],
      "name": "getValue2",
      "outputs": [
        {
          "internalType": "uint256",
          "name": "",
          "type": "uint256"
        }
      ],
      "stateMutability": "pure",
      "type": "function",
      "constant": true
    },
    {
      "inputs": [],
      "name": "test3",
      "outputs": [],
      "stateMutability": "nonpayable",
      "type": "function"
    },
    {
      "inputs": [
        {
          "internalType": "uint256",
          "name": "four_nibbles",
          "type": "uint256"
        },
        {
          "internalType": "uint256",
          "name": "index",
          "type": "uint256"
        }
      ],
      "name": "getValue3",
      "outputs": [
        {
          "internalType": "uint256",
          "name": "",
          "type": "uint256"
        }
      ],
      "stateMutability": "pure",
      "type": "function",
      "constant": true
    },
    {
      "inputs": [],
      "name": "test4",
      "outputs": [],
      "stateMutability": "nonpayable",
      "type": "function"
    },
    {
      "inputs": [
        {
          "internalType": "uint256",
          "name": "four_nibbles",
          "type": "uint256"
        },
        {
          "internalType": "uint256",
          "name": "index",
          "type": "uint256"
        }
      ],
      "name": "getValue4",
      "outputs": [
        {
          "internalType": "bool",
          "name": "",
          "type": "bool"
        }
      ],
      "stateMutability": "pure",
      "type": "function",
      "constant": true
    },
    {
      "inputs": [],
      "name": "test5",
      "outputs": [],
      "stateMutability": "nonpayable",
      "type": "function"
    },
    {
      "inputs": [
        {
          "internalType": "uint16",
          "name": "four_nibbles",
          "type": "uint16"
        },
        {
          "internalType": "uint16",
          "name": "index",
          "type": "uint16"
        }
      ],
      "name": "getValue5",
      "outputs": [
        {
          "internalType": "uint16",
          "name": "",
          "type": "uint16"
        }
      ],
      "stateMutability": "view",
      "type": "function",
      "constant": true
    }
  ],
  "bytecode": "0x608060405234801561001057600080fd5b506104a9806100206000396000f3fe608060405234801561001057600080fd5b50600436106100ea5760003560e01c80638f0d282d1161008c578063c4d6d0a611610066578063c4d6d0a614610182578063c54320ca1461018b578063cf5adafc14610138578063e7933b3b1461019457600080fd5b80638f0d282d1461015e578063be1af1c514610166578063beb837f61461017957600080fd5b806360c8205d116100c857806360c8205d1461012757806366e41cb7146101305780636b59084d146100f95780638a7820d11461013857600080fd5b80630a8e8e01146100ef5780631ad7be82146100f9578063554e660914610101575b600080fd5b6100f76101b8565b005b6100f7610239565b61011461010f3660046103b7565b6102a8565b6040519081526020015b60405180910390f35b61011460015481565b6100f76102c7565b61014b6101463660046103f0565b610336565b60405161ffff909116815260200161011e565b6100f761035d565b6101146101743660046103b7565b61039c565b61011460025481565b61011460005481565b61011460035481565b6101a86101a23660046103b7565b16151590565b604051901515815260200161011e565b60005a90506101ca61eb1160016102a8565b505a6101d69082610439565b6000555a90506101e961eb1160026102a8565b505a6101f59082610439565b6001555a905061020861eb1160046102a8565b505a6102149082610439565b6002555a905061022761eb1160086102a8565b505a6102339082610439565b60035550565b60005a905061024b61eb116000610336565b505a6102579082610439565b6000555a905061026a61eb116001610336565b505a6102769082610439565b6001555a905061028961eb116002610336565b505a6102959082610439565b6002555a905061022761eb116003610336565b600080828416116102ba5760006102bd565b60015b60ff169392505050565b60005a90506102d961eb11600061039c565b505a6102e59082610439565b6000555a90506102f861eb11600161039c565b505a6103049082610439565b6001555a905061031761eb11600261039c565b505a6103239082610439565b6002555a905061022761eb11600361039c565b6000600f6103448382610450565b61ffff168461ffff16901b61ffff16901c905092915050565b60005a90505a61036d9082610439565b6000555a90505a61037e9082610439565b6001555a90505a61038f9082610439565b6002555a90506000610227565b600060ff6103aa8382610439565b84901b901c905092915050565b600080604083850312156103ca57600080fd5b50508035926020909101359150565b803561ffff811681146103eb57600080fd5b919050565b6000806040838503121561040357600080fd5b61040c836103d9565b915061041a602084016103d9565b90509250929050565b634e487b7160e01b600052601160045260246000fd5b60008282101561044b5761044b610423565b500390565b600061ffff8381169083168181101561046b5761046b610423565b03939250505056fea264697066735822122015b83b6fc4676af5cbd11da00c04d1160798ffa3869a48443414edb2d9f41d7f64736f6c634300080a0033",
  "immutableReferences": {},
  "source": "// SPDX-License-Identifier: MIT\npragma solidity >=0.7.0 <0.9.0;\n\n/**\n * @title TestGasCosts\n * @dev TestGasCosts\n */\ncontract TestGasCosts {\n\n    uint16 private constant PARAM1 = 60177;\n\n    uint public used1;\n    uint public used2;\n    uint public used3;\n    uint public used4;\n\n    function test1() public {\n        uint pre = gasleft();\n        getValue1(PARAM1, 0);\n        used1 = pre - gasleft();\n        pre = gasleft();\n        getValue1(PARAM1, 1);\n        used2 = pre - gasleft();\n        pre = gasleft();\n        getValue1(PARAM1, 2);\n        used3 = pre - gasleft();\n        pre = gasleft();\n        getValue1(PARAM1, 3);\n        used4 = pre - gasleft();\n    }\n\n    function getValue1(uint16 four_nibbles, uint16 index) public pure returns(uint16) {\n        return (four_nibbles << (15 - index)) >> 15;\n    }\n\n    function test2() public {\n        uint pre = gasleft();\n        getValue2(PARAM1, 0);\n        used1 = pre - gasleft();\n        pre = gasleft();\n        getValue2(PARAM1, 1);\n        used2 = pre - gasleft();\n        pre = gasleft();\n        getValue2(PARAM1, 2);\n        used3 = pre - gasleft();\n        pre = gasleft();\n        getValue2(PARAM1, 3);\n        used4 = pre - gasleft();\n    }\n\n    function getValue2(uint four_nibbles, uint index) public pure returns(uint) {\n        return (four_nibbles << (255 - index)) >> 255;\n    }\n\n    function test3() public {\n        uint pre = gasleft();\n        getValue3(PARAM1, 1);\n        used1 = pre - gasleft();\n        pre = gasleft();\n        getValue3(PARAM1, 2);\n        used2 = pre - gasleft();\n        pre = gasleft();\n        getValue3(PARAM1, 4);\n        used3 = pre - gasleft();\n        pre = gasleft();\n        getValue3(PARAM1, 8);\n        used4 = pre - gasleft();\n    }\n\n    function getValue3(uint four_nibbles, uint index) public pure returns (uint) {\n        return (four_nibbles & index) > 0 ? 1 : 0;\n    }\n\n    function test4() public {\n        uint pre = gasleft();\n        getValue4(PARAM1, 16);\n        used1 = pre - gasleft();\n        pre = gasleft();\n        getValue4(PARAM1, 32);\n        used2 = pre - gasleft();\n        pre = gasleft();\n        getValue4(PARAM1, 64);\n        used3 = pre - gasleft();\n        pre = gasleft();\n        getValue4(PARAM1, 128);\n        used4 = pre - gasleft();\n    }\n\n    function getValue4(uint four_nibbles, uint index) public pure returns (bool) {\n        return (four_nibbles & index) > 0;\n    }\n\n    function test5() public {\n        uint pre = gasleft();\n        getValue1(PARAM1, 0);\n        used1 = pre - gasleft();\n        pre = gasleft();\n        getValue1(PARAM1, 1);\n        used2 = pre - gasleft();\n        pre = gasleft();\n        getValue1(PARAM1, 2);\n        used3 = pre - gasleft();\n        pre = gasleft();\n        getValue1(PARAM1, 3);\n        used4 = pre - gasleft();\n    }\n\n    function getValue5(uint16 four_nibbles, uint16 index) public view returns(uint16) {\n        return (four_nibbles << (15 - index)) >> 15;\n    }\n\n}\n\n",
  "sourcePath": "/home/developer/workspace/test-gas-costs/contracts/TestGasCosts.sol",
  "compiler": {
    "name": "solc",
    "version": "0.8.10+commit.fc410830.Emscripten.clang"
  },
  "schemaVersion": "3.4.4",
  "updatedAt": "2022-01-25T20:03:05.322Z",
  "networkType": "ethereum",
  "devdoc": {
    "details": "TestGasCosts",
    "kind": "dev",
    "methods": {},
    "title": "TestGasCosts",
    "version": 1
  },
  "userdoc": {
    "kind": "user",
    "methods": {},
    "version": 1
  }
}