{
  "contractName": "TestPackingUint16",
  "abi": [
    {
      "inputs": [],
      "name": "a",
      "outputs": [
        {
          "internalType": "uint256",
          "name": "",
          "type": "uint256"
        }
      ],
      "stateMutability": "view",
      "type": "function",
      "constant": true
    },
    {
      "inputs": [],
      "name": "b",
      "outputs": [
        {
          "internalType": "uint256",
          "name": "",
          "type": "uint256"
        }
      ],
      "stateMutability": "view",
      "type": "function",
      "constant": true
    },
    {
      "inputs": [],
      "name": "c",
      "outputs": [
        {
          "internalType": "uint256",
          "name": "",
          "type": "uint256"
        }
      ],
      "stateMutability": "view",
      "type": "function",
      "constant": true
    },
    {
      "inputs": [],
      "name": "checkpoint",
      "outputs": [
        {
          "internalType": "uint256",
          "name": "",
          "type": "uint256"
        }
      ],
      "stateMutability": "view",
      "type": "function",
      "constant": true
    },
    {
      "inputs": [],
      "name": "d",
      "outputs": [
        {
          "internalType": "uint256",
          "name": "",
          "type": "uint256"
        }
      ],
      "stateMutability": "view",
      "type": "function",
      "constant": true
    },
    {
      "inputs": [],
      "name": "myValue",
      "outputs": [
        {
          "internalType": "uint256",
          "name": "word",
          "type": "uint256"
        }
      ],
      "stateMutability": "view",
      "type": "function",
      "constant": true
    },
    {
      "inputs": [],
      "name": "packed",
      "outputs": [
        {
          "internalType": "uint256",
          "name": "",
          "type": "uint256"
        }
      ],
      "stateMutability": "view",
      "type": "function",
      "constant": true
    },
    {
      "inputs": [],
      "name": "setPackedUint16",
      "outputs": [],
      "stateMutability": "nonpayable",
      "type": "function"
    },
    {
      "inputs": [],
      "name": "readPackedUint16",
      "outputs": [
        {
          "internalType": "uint16",
          "name": "",
          "type": "uint16"
        },
        {
          "internalType": "uint16",
          "name": "",
          "type": "uint16"
        },
        {
          "internalType": "uint16",
          "name": "",
          "type": "uint16"
        },
        {
          "internalType": "uint16",
          "name": "",
          "type": "uint16"
        }
      ],
      "stateMutability": "view",
      "type": "function",
      "constant": true
    },
    {
      "inputs": [],
      "name": "testSetPackedUint16",
      "outputs": [],
      "stateMutability": "nonpayable",
      "type": "function"
    },
    {
      "inputs": [],
      "name": "setUint256",
      "outputs": [],
      "stateMutability": "nonpayable",
      "type": "function"
    },
    {
      "inputs": [],
      "name": "testSetUint16",
      "outputs": [],
      "stateMutability": "nonpayable",
      "type": "function"
    },
    {
      "inputs": [],
      "name": "pack",
      "outputs": [],
      "stateMutability": "nonpayable",
      "type": "function"
    },
    {
      "inputs": [],
      "name": "testPack",
      "outputs": [],
      "stateMutability": "nonpayable",
      "type": "function"
    },
    {
      "inputs": [],
      "name": "readPacked",
      "outputs": [
        {
          "internalType": "uint16",
          "name": "",
          "type": "uint16"
        },
        {
          "internalType": "uint16",
          "name": "",
          "type": "uint16"
        },
        {
          "internalType": "uint16",
          "name": "",
          "type": "uint16"
        },
        {
          "internalType": "uint16",
          "name": "",
          "type": "uint16"
        }
      ],
      "stateMutability": "view",
      "type": "function",
      "constant": true
    }
  ],
  "bytecode": "0x608060405234801561001057600080fd5b50610698806100206000396000f3fe608060405234801561001057600080fd5b50600436106100f55760003560e01c80638f23d5f611610097578063c3da42b811610066578063c3da42b8146101be578063cd5f7b50146101c7578063ee83bcdf146101cf578063ef082838146101d757600080fd5b80638f23d5f61461017a578063adab492014610183578063b9ecb76a1461019a578063c2c4c5c1146101b557600080fd5b806347f1aae7116100d357806347f1aae7146101565780634df7e3d0146101605780636f6e46d3146101695780638a054ac21461017157600080fd5b8063051578fb146100fa5780630dbe671f1461010457806316659c0f14610120575b600080fd5b6101026101ec565b005b61010d60025481565b6040519081526020015b60405180910390f35b61012861020a565b6040805161ffff95861681529385166020850152918416918301919091529091166060820152608001610117565b60015461010d9081565b61010d60035481565b61010261040d565b61010d60055481565b61010d60065481565b600654601081901c602082901c603083901c610128565b610102600a60025560646003556103e8600455612710600555565b61010d60005481565b61010d60045481565b610102610427565b610102610447565b6101026006805467271003e80064000a179055565b60005a90506101f9610447565b5a6102049082610612565b60005550565b604051634d47be6760e01b8152600160048201526000602482018190529081908190819073__packedUint16__________________________90634d47be6790604401602060405180830381865af415801561026a573d6000803e3d6000fd5b505050506040513d601f19601f8201168201806040525081019061028e9190610637565b604051634d47be6760e01b8152600160048201819052602482015273__packedUint16__________________________90634d47be6790604401602060405180830381865af41580156102e5573d6000803e3d6000fd5b505050506040513d601f19601f820116820180604052508101906103099190610637565b604051634d47be6760e01b8152600160048201526002602482015273__packedUint16__________________________90634d47be6790604401602060405180830381865af4158015610360573d6000803e3d6000fd5b505050506040513d601f19601f820116820180604052508101906103849190610637565b604051634d47be6760e01b8152600160048201526003602482015273__packedUint16__________________________90634d47be6790604401602060405180830381865af41580156103db573d6000803e3d6000fd5b505050506040513d601f19601f820116820180604052508101906103ff9190610637565b935093509350935090919293565b60005a90506101f96006805467271003e80064000a179055565b60005a90506101f9600a60025560646003556103e8600455612710600555565b6040516387746b7160e01b815260016004820152600a60248201526000604482015273__packedUint16__________________________906387746b719060640160006040518083038186803b1580156104a057600080fd5b505af41580156104b4573d6000803e3d6000fd5b50506040516387746b7160e01b8152600160048201819052606460248301819052604483019190915273__packedUint16__________________________93506387746b7192500160006040518083038186803b15801561051457600080fd5b505af4158015610528573d6000803e3d6000fd5b50506040516387746b7160e01b8152600160048201526103e860248201526002604482015273__packedUint16__________________________92506387746b71915060640160006040518083038186803b15801561058657600080fd5b505af415801561059a573d6000803e3d6000fd5b50506040516387746b7160e01b81526001600482015261271060248201526003604482015273__packedUint16__________________________92506387746b71915060640160006040518083038186803b1580156105f857600080fd5b505af415801561060c573d6000803e3d6000fd5b50505050565b60008282101561063257634e487b7160e01b600052601160045260246000fd5b500390565b60006020828403121561064957600080fd5b815161ffff8116811461065b57600080fd5b939250505056fea26469706673582212203ac3d29f2a1a32c8a13aec7d10535ae89620ccb6ee0916fca2fc90997d29d72f64736f6c634300080a0033",
  "immutableReferences": {},
  "source": "// SPDX-License-Identifier: MIT\npragma solidity >=0.6.0 <0.9.0;\n\nstruct PackedUint16 { uint256 word; }\n\nlibrary packedUint16 {\n    \n    function set(PackedUint16 storage self, uint16 value, uint8 index)\n        public\n    {\n        self.word = self.word | uint(value) << index * 16;\n    }\n\n    function get(PackedUint16 storage self, uint8 index)\n        public\n        view\n        returns (uint16)\n    {\n        return uint16(self.word >> (index * 16));\n    }\n\n}\n\ncontract TestPackingUint16 {\n\n    uint public checkpoint;\n\n    //\n    // The most costly (34.427 gas)\n    //\n    using packedUint16 for PackedUint16;\n\n    PackedUint16 public myValue;\n    \n    function setPackedUint16() \n        public\n    {\n        myValue.set(10, 0);\n        myValue.set(100, 1);\n        myValue.set(1000, 2);\n        myValue.set(10000, 3);\n    }\n\n    function readPackedUint16()\n        public\n        view\n        returns (uint16, uint16, uint16, uint16)\n    {\n        return (myValue.get(0), myValue.get(1), myValue.get(2), myValue.get(3));\n    }\n\n    function testSetPackedUint16() \n        public\n    {\n        uint pre = gasleft();\n        setPackedUint16();\n        checkpoint = pre - gasleft();\n    }\n\n    //\n    // Mid cost (30.130 gas)\n    //\n    uint public a;\n    uint public b;\n    uint public c;\n    uint public d;\n\n    function setUint256() \n        public\n    {\n        a = uint(10);\n        b = uint(100);\n        c = uint(1000);\n        d = uint(10000);\n    }\n\n    function testSetUint16() \n        public\n    {\n        uint pre = gasleft();\n        setUint256();\n        checkpoint = pre - gasleft();\n    }\n\n    //\n    // Cheapest one (24.286 gas)\n    //\n    uint public packed;\n\n    function pack()\n        public\n    {\n        packed |= uint(10) << 0 * 16;\n        packed |= uint(100) << 1 * 16;\n        packed |= uint(1000) << 2 * 16;\n        packed |= uint(10000) << 3 * 16;\n    }\n\n    function testPack() \n        public\n    {\n        uint pre = gasleft();\n        pack();\n        checkpoint = pre - gasleft();\n    }\n\n    function readPacked()\n        public\n        view\n        returns (uint16, uint16, uint16, uint16)\n    {\n        return (uint16(packed >> 0), uint16(packed >> 16), uint16(packed >> 32), uint16(packed >> 48));\n    }\n\n}",
  "sourcePath": "/home/developer/workspace/test-gas-costs/contracts/TestPackingUint16.sol",
  "compiler": {
    "name": "solc",
    "version": "0.8.10+commit.fc410830.Emscripten.clang"
  },
  "schemaVersion": "3.4.4",
  "updatedAt": "2022-02-03T01:24:32.527Z",
  "networkType": "ethereum",
  "devdoc": {
    "kind": "dev",
    "methods": {},
    "version": 1
  },
  "userdoc": {
    "kind": "user",
    "methods": {},
    "version": 1
  }
}