{
  "contractName": "TestEvents",
  "abi": [
    {
      "anonymous": false,
      "inputs": [
        {
          "indexed": true,
          "internalType": "uint256",
          "name": "first",
          "type": "uint256"
        },
        {
          "indexed": false,
          "internalType": "uint256",
          "name": "second",
          "type": "uint256"
        }
      ],
      "name": "DataEvent",
      "type": "event"
    },
    {
      "inputs": [],
      "name": "checkpoint",
      "outputs": [
        {
          "internalType": "uint256",
          "name": "",
          "type": "uint256"
        }
      ],
      "stateMutability": "view",
      "type": "function",
      "constant": true
    },
    {
      "inputs": [],
      "name": "testReturnData",
      "outputs": [],
      "stateMutability": "nonpayable",
      "type": "function"
    },
    {
      "inputs": [],
      "name": "testReturnAndUseData",
      "outputs": [],
      "stateMutability": "nonpayable",
      "type": "function"
    },
    {
      "inputs": [],
      "name": "testEmitData",
      "outputs": [],
      "stateMutability": "nonpayable",
      "type": "function"
    }
  ],
  "bytecode": "0x60806040526001600055600260015534801561001a57600080fd5b506101cf8061002a6000396000f3fe608060405234801561001057600080fd5b506004361061004c5760003560e01c8063653a3017146100515780639dca0ae91461005b578063c2c4c5c114610063578063eebae9721461007e575b600080fd5b610059610086565b005b6100596100a4565b61006c60025481565b60405190815260200160405180910390f35b6100596100c3565b60005a905061009361010d565b5a61009e9082610163565b60025550565b60005a90506100b66000546001549091565b50505a61009e9082610163565b60005a90506000806100d86000546001549091565b915091505a6100e79084610163565b60029081556100f790839061017a565b60035561010581600261017a565b600455505050565b6000547f9374061e8b644eb8bcf818ab46b4062b90af8e13f5780ef74619c733dd54246b60015460405161014391815260200190565b60405180910390a2565b634e487b7160e01b600052601160045260246000fd5b6000828210156101755761017561014d565b500390565b60008160001904831182151516156101945761019461014d565b50029056fea2646970667358221220df4a2df23412314886061e3cf1864f8f322544e8c34de48042a7bc11e23c408164736f6c634300080a0033",
  "immutableReferences": {},
  "source": "// SPDX-License-Identifier: MIT\npragma solidity >=0.7.0 <0.9.0;\n\n/**\n * @title TestEvents\n * @dev TestEvents\n */\ncontract TestEvents {\n    uint _first = 1;\n    uint _second = 2;\n    event DataEvent(uint indexed first, uint second);\n\n    uint public checkpoint;\n    uint private __first_store;\n    uint private __second_store;\n\n    function returnData() private view returns (uint first, uint second) {\n        return (_first, _second);\n    }\n\n    function emitData() private {\n        emit DataEvent(_first, _second);\n    }\n\n    function testReturnData() external {\n        uint pre = gasleft();\n        returnData();\n        checkpoint = pre - gasleft();\n    }\n\n    function testReturnAndUseData() external {\n        uint pre = gasleft();\n        (uint __first, uint __second) = returnData();\n        checkpoint = pre - gasleft();\n        // Do something with returned values. This is done just to be sure the compiler\n        // does not apply optimizations if the returned variables are not used\n        __first_store = __first * 2;\n        __second_store = __second * 2;\n    }\n\n    function testEmitData() external {\n        uint pre = gasleft();\n        emitData();\n        checkpoint = pre - gasleft();\n    }\n}\n",
  "sourcePath": "/home/developer/workspace/test-gas-costs/contracts/TestEvents.sol",
  "compiler": {
    "name": "solc",
    "version": "0.8.10+commit.fc410830.Emscripten.clang"
  },
  "schemaVersion": "3.4.4",
  "updatedAt": "2022-01-25T20:03:05.325Z",
  "networkType": "ethereum",
  "devdoc": {
    "details": "TestEvents",
    "kind": "dev",
    "methods": {},
    "title": "TestEvents",
    "version": 1
  },
  "userdoc": {
    "kind": "user",
    "methods": {},
    "version": 1
  }
}